:020000003D2899
:100008007E14803120007F08F9000B198B1E1E28F2
:100018000C3095000130F0070030F13D00307102DE
:10002800023003197002031C1C284820F001F1015A
:100038000B113828911C38282100911C3828750884
:10004800013EF8007808F5007608750203182F2895
:1000580022008C16312822008C12403075020318B9
:10006800F501200091109A0179082000FF007E1008
:1000780009003E28F001F101F201F301F401F50154
:10008800F6017E102000BD2821009D149D184A28E5
:100098001C08F3001B08F20000307302FB30031940
:1000A8007202031C5A28F401F40A6228F401003091
:1000B8007302F13003197202031C64284030A2282D
:1000C80000307302E63003197202031C6D283C30BD
:1000D800A22800307302DC3003197202031C762850
:1000E8003730A22800307302D13003197202031C82
:1000F8007F283230A22800307302C73003197202F9
:10010800031C88282D30A22800307302BD30031943
:100118007202031C91282830A22800307302B230E2
:1001280003197202031C9A282330A2280030730294
:10013800A83003197202031CA6281E30F70077089E
:10014800F600A728F6017403031DB22822000C103C
:100158008C1CB0288C1008008C14080020000C1E81
:10016800B92822000C108C14080022000C148C10E2
:1001780008005030210099009A01980122008C0152
:10018800043023008C003F3024008C001C302100F8
:100198008C009513013022009D008C120130210043
:1001A8009D0080309E009B019C011D088339083802
:1001B8009D001D1420009C010C309B009A011C1509
:1001C800911021009114873095000C302000950083
:1001D800A0308B000B118B168B16210015130B16F4
:0601E8008B170B17F6282F
:020000040001F9
:04000E00A4FFFFFF4D
:00000001FF
